:1000000009C016C015C014C013C012C011C010C062
:1000100010C00EC011241FBECFE9CDBF20E0A0E666
:10002000B0E001C01D92A536B207E1F713D027C09A
:10003000E7CFEF93EFB7EF930F93E0E600810D4E1C
:1000400002C000810F4F0193E0F70F91EF91EFBFD6
:10005000EF91189583E083BF8FBD80E481BD7894D4
:100060008FEF87BB91E082E098BBE0EFF0E0319743
:10007000F1F788BBE0EFF0E03197F1F7F5CFF894B6
:02008000FFCFB0
:00000001FF
